{
  "abi": [
    {
      "type": "constructor",
      "inputs": [
        {
          "name": "_owner",
          "type": "address",
          "internalType": "address"
        },
        {
          "name": "_wsteth",
          "type": "address",
          "internalType": "address"
        },
        {
          "name": "_mellowVault",
          "type": "address",
          "internalType": "address"
        },
        {
          "name": "_weth",
          "type": "address",
          "internalType": "address"
        },
        {
          "name": "_feeRecipient",
          "type": "address",
          "internalType": "address"
        },
        {
          "name": "_unlockTime",
          "type": "uint64",
          "internalType": "uint64"
        }
      ],
      "stateMutability": "nonpayable"
    },
    {
      "type": "receive",
      "stateMutability": "payable"
    },
    {
      "type": "function",
      "name": "MELLOW_VAULT",
      "inputs": [],
      "outputs": [
        {
          "name": "",
          "type": "address",
          "internalType": "contract IERC4626"
        }
      ],
      "stateMutability": "view"
    },
    {
      "type": "function",
      "name": "WETH",
      "inputs": [],
      "outputs": [
        {
          "name": "",
          "type": "address",
          "internalType": "contract IWETH"
        }
      ],
      "stateMutability": "view"
    },
    {
      "type": "function",
      "name": "WSTETH",
      "inputs": [],
      "outputs": [
        {
          "name": "",
          "type": "address",
          "internalType": "contract IERC20"
        }
      ],
      "stateMutability": "view"
    },
    {
      "type": "function",
      "name": "canWithdraw",
      "inputs": [],
      "outputs": [
        {
          "name": "",
          "type": "bool",
          "internalType": "bool"
        }
      ],
      "stateMutability": "view"
    },
    {
      "type": "function",
      "name": "currentAssetsOf",
      "inputs": [
        {
          "name": "user",
          "type": "address",
          "internalType": "address"
        }
      ],
      "outputs": [
        {
          "name": "assets",
          "type": "uint256",
          "internalType": "uint256"
        }
      ],
      "stateMutability": "view"
    },
    {
      "type": "function",
      "name": "depositETHViaRouter",
      "inputs": [
        {
          "name": "router",
          "type": "address",
          "internalType": "address"
        },
        {
          "name": "swapCalldata",
          "type": "bytes",
          "internalType": "bytes"
        },
        {
          "name": "minWstOut",
          "type": "uint256",
          "internalType": "uint256"
        }
      ],
      "outputs": [],
      "stateMutability": "payable"
    },
    {
      "type": "function",
      "name": "depositWstETH",
      "inputs": [
        {
          "name": "assets",
          "type": "uint256",
          "internalType": "uint256"
        }
      ],
      "outputs": [],
      "stateMutability": "nonpayable"
    },
    {
      "type": "function",
      "name": "feeBps",
      "inputs": [],
      "outputs": [
        {
          "name": "",
          "type": "uint16",
          "internalType": "uint16"
        }
      ],
      "stateMutability": "view"
    },
    {
      "type": "function",
      "name": "feeRecipient",
      "inputs": [],
      "outputs": [
        {
          "name": "",
          "type": "address",
          "internalType": "address"
        }
      ],
      "stateMutability": "view"
    },
    {
      "type": "function",
      "name": "isRouterAllowed",
      "inputs": [
        {
          "name": "",
          "type": "address",
          "internalType": "address"
        }
      ],
      "outputs": [
        {
          "name": "",
          "type": "bool",
          "internalType": "bool"
        }
      ],
      "stateMutability": "view"
    },
    {
      "type": "function",
      "name": "owner",
      "inputs": [],
      "outputs": [
        {
          "name": "",
          "type": "address",
          "internalType": "address"
        }
      ],
      "stateMutability": "view"
    },
    {
      "type": "function",
      "name": "profitOf",
      "inputs": [
        {
          "name": "user",
          "type": "address",
          "internalType": "address"
        }
      ],
      "outputs": [
        {
          "name": "",
          "type": "int256",
          "internalType": "int256"
        }
      ],
      "stateMutability": "view"
    },
    {
      "type": "function",
      "name": "setParams",
      "inputs": [
        {
          "name": "_feeRecipient",
          "type": "address",
          "internalType": "address"
        },
        {
          "name": "_feeBps",
          "type": "uint16",
          "internalType": "uint16"
        },
        {
          "name": "_unlockTime",
          "type": "uint64",
          "internalType": "uint64"
        },
        {
          "name": "_withdrawalsEnabled",
          "type": "bool",
          "internalType": "bool"
        }
      ],
      "outputs": [],
      "stateMutability": "nonpayable"
    },
    {
      "type": "function",
      "name": "setRouterAllowed",
      "inputs": [
        {
          "name": "router",
          "type": "address",
          "internalType": "address"
        },
        {
          "name": "allowed",
          "type": "bool",
          "internalType": "bool"
        }
      ],
      "outputs": [],
      "stateMutability": "nonpayable"
    },
    {
      "type": "function",
      "name": "transferOwnership",
      "inputs": [
        {
          "name": "newOwner",
          "type": "address",
          "internalType": "address"
        }
      ],
      "outputs": [],
      "stateMutability": "nonpayable"
    },
    {
      "type": "function",
      "name": "unlockTime",
      "inputs": [],
      "outputs": [
        {
          "name": "",
          "type": "uint64",
          "internalType": "uint64"
        }
      ],
      "stateMutability": "view"
    },
    {
      "type": "function",
      "name": "userPrincipal",
      "inputs": [
        {
          "name": "",
          "type": "address",
          "internalType": "address"
        }
      ],
      "outputs": [
        {
          "name": "",
          "type": "uint256",
          "internalType": "uint256"
        }
      ],
      "stateMutability": "view"
    },
    {
      "type": "function",
      "name": "userShares",
      "inputs": [
        {
          "name": "",
          "type": "address",
          "internalType": "address"
        }
      ],
      "outputs": [
        {
          "name": "",
          "type": "uint256",
          "internalType": "uint256"
        }
      ],
      "stateMutability": "view"
    },
    {
      "type": "function",
      "name": "withdrawSplitToETH",
      "inputs": [
        {
          "name": "sharesToRedeem",
          "type": "uint256",
          "internalType": "uint256"
        },
        {
          "name": "router",
          "type": "address",
          "internalType": "address"
        },
        {
          "name": "swapCalldata",
          "type": "bytes",
          "internalType": "bytes"
        },
        {
          "name": "minEthOut",
          "type": "uint256",
          "internalType": "uint256"
        }
      ],
      "outputs": [],
      "stateMutability": "nonpayable"
    },
    {
      "type": "function",
      "name": "withdrawalsEnabled",
      "inputs": [],
      "outputs": [
        {
          "name": "",
          "type": "bool",
          "internalType": "bool"
        }
      ],
      "stateMutability": "view"
    },
    {
      "type": "event",
      "name": "DepositedETH",
      "inputs": [
        {
          "name": "user",
          "type": "address",
          "indexed": true,
          "internalType": "address"
        },
        {
          "name": "router",
          "type": "address",
          "indexed": false,
          "internalType": "address"
        },
        {
          "name": "ethIn",
          "type": "uint256",
          "indexed": false,
          "internalType": "uint256"
        },
        {
          "name": "wstBought",
          "type": "uint256",
          "indexed": false,
          "internalType": "uint256"
        },
        {
          "name": "sharesOut",
          "type": "uint256",
          "indexed": false,
          "internalType": "uint256"
        }
      ],
      "anonymous": false
    },
    {
      "type": "event",
      "name": "DepositedWst",
      "inputs": [
        {
          "name": "user",
          "type": "address",
          "indexed": true,
          "internalType": "address"
        },
        {
          "name": "wstIn",
          "type": "uint256",
          "indexed": false,
          "internalType": "uint256"
        },
        {
          "name": "sharesOut",
          "type": "uint256",
          "indexed": false,
          "internalType": "uint256"
        }
      ],
      "anonymous": false
    },
    {
      "type": "event",
      "name": "OwnershipTransferred",
      "inputs": [
        {
          "name": "previousOwner",
          "type": "address",
          "indexed": true,
          "internalType": "address"
        },
        {
          "name": "newOwner",
          "type": "address",
          "indexed": true,
          "internalType": "address"
        }
      ],
      "anonymous": false
    },
    {
      "type": "event",
      "name": "ParamsUpdated",
      "inputs": [
        {
          "name": "feeRecipient",
          "type": "address",
          "indexed": false,
          "internalType": "address"
        },
        {
          "name": "feeBps",
          "type": "uint16",
          "indexed": false,
          "internalType": "uint16"
        },
        {
          "name": "unlockTime",
          "type": "uint64",
          "indexed": false,
          "internalType": "uint64"
        },
        {
          "name": "withdrawalsEnabled",
          "type": "bool",
          "indexed": false,
          "internalType": "bool"
        }
      ],
      "anonymous": false
    },
    {
      "type": "event",
      "name": "RouterAllowed",
      "inputs": [
        {
          "name": "router",
          "type": "address",
          "indexed": false,
          "internalType": "address"
        },
        {
          "name": "allowed",
          "type": "bool",
          "indexed": false,
          "internalType": "bool"
        }
      ],
      "anonymous": false
    },
    {
      "type": "event",
      "name": "WithdrawnToETH",
      "inputs": [
        {
          "name": "user",
          "type": "address",
          "indexed": true,
          "internalType": "address"
        },
        {
          "name": "sharesIn",
          "type": "uint256",
          "indexed": false,
          "internalType": "uint256"
        },
        {
          "name": "ethUser",
          "type": "uint256",
          "indexed": false,
          "internalType": "uint256"
        },
        {
          "name": "ethFee",
          "type": "uint256",
          "indexed": false,
          "internalType": "uint256"
        }
      ],
      "anonymous": false
    }
  ],
  "bytecode": {
    "object": "0x60e03461024757601f6119e538819003918201601f19168301916001600160401b0383118484101761024c5780849260c0946040528339810103126102475761004781610262565b9061005460208201610262565b9161006160408301610262565b61006d60608401610262565b9060a061007c60808601610262565b940151926001600160401b0384168403610247576001600160a01b0316801561021557600080546001600160a01b0319168217815560405191907f8be0079c531659141344cd1fd0a4f28419497f9722a3daafe3b4186f6b6457e08180a360018055600254956001600160a01b03169081151580610203575b806101f1575b806101df575b156101b157506080526001600160a01b0390811660a05290811660c052919091166001600160f01b03199092169190911760b09190911b600160b01b600160f01b03161761027160a31b1760025560405161176e908161027782396080518181816101fe0152818161037f015281816106f50152610c98015260a0518181816102fa015281816103e8015281816107d201528181610d0301526114f2015260c05181818161028e0152610fc70152f35b62461bcd60e51b81526020600482015260096024820152682d22a927afa0a2222960b91b6044820152606490fd5b506001600160a01b0386161515610101565b506001600160a01b03841615156100fb565b506001600160a01b03831615156100f5565b60405162461bcd60e51b815260206004820152600a6024820152692d22a927afa7aba722a960b11b6044820152606490fd5b600080fd5b634e487b7160e01b600052604160045260246000fd5b51906001600160a01b03821682036102475756fe6080604052600436101561001b575b361561001957600080fd5b005b6000803560e01c8063099476d0146114175780631fa0ee4414610be357806324a9d85314610bbe578063251c1aa314610b93578063290f253914610a2157806346904840146109f857806354198ce9146109cc578063604e85b91461066b57806361771e491461062c57806362dab626146105f35780636cc88edb1461055f578063866c01011461032957806389a64344146102e45780638da5cb5b146102bd578063ad5c464814610278578063b51459fe14610253578063d0dbcd241461022d578063d9fb643a146101e8578063de69b3aa146101af5763f2fde38b14610103575061000e565b346101ac5760203660031901126101ac5761011c61143b565b81546001600160a01b03811691610134338414611677565b6001600160a01b031691821561017a5782907f8be0079c531659141344cd1fd0a4f28419497f9722a3daafe3b4186f6b6457e08580a36001600160a01b03191617815580f35b60405162461bcd60e51b815260206004820152600a6024820152692d22a927afa7aba722a960b11b6044820152606490fd5b80fd5b50346101ac5760203660031901126101ac576020906040906001600160a01b036101d761143b565b168152600483522054604051908152f35b50346101ac57806003193601126101ac576040517f00000000000000000000000000000000000000000000000000000000000000006001600160a01b03168152602090f35b50346101ac57806003193601126101ac57602060ff60025460f01c166040519015158152f35b50346101ac57806003193601126101ac57602061026e61170e565b6040519015158152f35b50346101ac57806003193601126101ac576040517f00000000000000000000000000000000000000000000000000000000000000006001600160a01b03168152602090f35b50346101ac57806003193601126101ac57546040516001600160a01b039091168152602090f35b50346101ac57806003193601126101ac576040517f00000000000000000000000000000000000000000000000000000000000000006001600160a01b03168152602090f35b50346101ac5760203660031901126101ac5760043561034b600180541461156f565b6002600155801561052c576040516323b872dd60e01b815233600482015230602482015260448101829052602081606481867f00000000000000000000000000000000000000000000000000000000000000006001600160a01b03165af19081156104ba5783916104fd575b50156104c557604051636e553f6560e01b815260048101829052306024820152602081604481866001600160a01b037f0000000000000000000000000000000000000000000000000000000000000000165af19081156104ba578391610483575b50338352600460205260408320610430828254611701565b9055338352600560205260408320610449838254611701565b905560405191825260208201527f776d73173002e44dc1f2aaed70d07890500e83089a9c21ef5d7e7ebf89250e3760403392a26001805580f35b90506020813d6020116104b2575b8161049e6020938361147f565b810103126104ad575138610418565b600080fd5b3d9150610491565b6040513d85823e3d90fd5b60405162461bcd60e51b815260206004820152601060248201526f1514905394d1915497d25397d190525360821b6044820152606490fd5b61051f915060203d602011610525575b610517818361147f565b81019061160c565b386103b7565b503d61050d565b60405162461bcd60e51b815260206004820152600b60248201526a5a45524f5f41535345545360a81b6044820152606490fd5b50346101ac5760403660031901126101ac5761057961143b565b602435908115158092036105ef577f5ae067a93e2af6193017728cb7e9ef5af1d750a5beb7b16a05b54d56f6f355e3916040916105c060018060a01b038654163314611677565b60018060a01b031690818552600360205282852060ff1981541660ff831617905582519182526020820152a180f35b8280fd5b50346101ac5760203660031901126101ac576020906040906001600160a01b0361061b61143b565b168152600583522054604051908152f35b50346101ac5760203660031901126101ac5760209060ff906040906001600160a01b0361065761143b565b168152600384522054166040519015158152f35b5060603660031901126101ac5761068061143b565b60243567ffffffffffffffff81116105ef576106a0903690600401611451565b91906106af600180541461156f565b60026001556001600160a01b038216808552600360205260408520549093906106da9060ff166115a8565b341561099c576040516370a0823160e01b81523060048201527f00000000000000000000000000000000000000000000000000000000000000006001600160a01b0316939091869190602084602481895afa9384156104ba578394610964575b508293948160405192839283378101848152039134905af161075a611624565b501561092c576020602492604051938480926370a0823160e01b82523060048301525afa80156108ac5784906108f8575b61079592506115e9565b604435811015806108ef575b156108b757604051636e553f6560e01b81526004810182905230602482015290602082604481876001600160a01b037f0000000000000000000000000000000000000000000000000000000000000000165af19182156108ac578492610878575b5033845260046020526040842061081a838254611701565b9055338452600560205260408420610833828254611701565b9055604051928352346020840152604083015260608201527f7f2f45a11fb33879a148fe292bbe682a942ce069beac3d9ddd0f76fce037df2160803392a26001805580f35b9091506020813d6020116108a4575b816108946020938361147f565b810103126104ad57519038610802565b3d9150610887565b6040513d86823e3d90fd5b60405162461bcd60e51b815260206004820152601060248201526f125394d551919250d251539517d3d55560821b6044820152606490fd5b508015156107a1565b506020823d602011610924575b816109126020938361147f565b810103126104ad57610795915161078b565b3d9150610905565b60405162461bcd60e51b815260206004820152601060248201526f1493d555115497d0d0531317d190525360821b6044820152606490fd5b925092506020823d602011610994575b816109816020938361147f565b810103126104ad5786928392519361073a565b3d9150610974565b60405162461bcd60e51b81526020600482015260086024820152670b48aa49ebe8aa8960c31b6044820152606490fd5b50346101ac5760203660031901126101ac5760206109f06109eb61143b565b6116af565b604051908152f35b50346101ac57806003193601126101ac576002546040516001600160a01b039091168152602090f35b50346101ac5760803660031901126101ac57610a3b61143b565b6024359061ffff8216808303610b8f576044359167ffffffffffffffff8316808403610b8b5760643591821515809303610b8757610a8360018060a01b038854163314611677565b6001600160a01b0316928315610b52576127108111610b1e577f5098e1fc2b4a89749ea05a9f13a8a5dab88233470a389fa292cd39a4aafee66a956080956002549160ff60f01b8660f01b16928760ff60f01b199161ffff60f01b1617169061ffff60a01b9060a01b16179067ffffffffffffffff60b01b9060b01b161717600255604051938452602084015260408301526060820152a180f35b60405162461bcd60e51b815260206004820152600c60248201526b08c8a8abea89e9ebe90928e960a31b6044820152606490fd5b60405162461bcd60e51b815260206004820152600d60248201526c2d22a927afa322a2afa0a2222960991b6044820152606490fd5b8680fd5b8580fd5b8380fd5b50346101ac57806003193601126101ac57602067ffffffffffffffff60025460b01c16604051908152f35b50346101ac57806003193601126101ac57602061ffff60025460a01c16604051908152f35b50346101ac5760803660031901126101ac576004356024356001600160a01b03811690818103610b8f5760443567ffffffffffffffff811161141357610c2d903690600401611451565b9092610c3c600180541461156f565b6002600155610c4961170e565b156113dc578086526003602052610c6660ff6040882054166115a8565b3386526004602052604086205492851515806113d2575b1561139a576040516370a0823160e01b8152306004820152927f00000000000000000000000000000000000000000000000000000000000000006001600160a01b0316602085602481845afa94851561138f578995611357575b50604051635d043b2960e11b81526004810189905230602482018190526044820152946020866064818d7f00000000000000000000000000000000000000000000000000000000000000006001600160a01b03165af1958615611227578a9661131f575b5085156112e8576040516370a0823160e01b815230600482015290602082602481865afa80156112dd578b906112a5575b610d7692506115e9565b948510611272578893604051636eb1769f60e11b8152306004820152816024820152602081604481865afa80156112675787918791611232575b50106110ec575b5050828094504796826040519384928337810182815203925af1610dd9611624565b50156110b457610de982476115e9565b918215610fb0575b5060643582101580610fa7575b15610f6b57610e24612710610e1c61ffff60025460a01c1685611664565b0480936115e9565b908480808085335af1610e35611624565b5015610f3657848080808660018060a01b03600254165af1610e55611624565b5015610f0257610e6584826115e9565b338652600560205260408620549033875260046020528060408820558015600014610ed957505050835b33855260056020526040852055604051928352602083015260408201527f48e4221d9a54d1188c4b73128e52b526c7e4c1d002899d7204f46f12f398c1d060603392a26001805580f35b610ee291611664565b8115610eee5704610e8f565b634e487b7160e01b86526012600452602486fd5b60405162461bcd60e51b815260206004820152600c60248201526b11551217d1915157d190525360a21b6044820152606490fd5b60405162461bcd60e51b815260206004820152600d60248201526c11551217d554d15497d1905253609a1b6044820152606490fd5b60405162461bcd60e51b8152602060048201526014602482015273125394d551919250d251539517d1551217d3d55560621b6044820152606490fd5b50811515610dfe565b6040516370a0823160e01b815230600482015285907f00000000000000000000000000000000000000000000000000000000000000006001600160a01b0316602082602481845afa9182156104ba578392611080575b5081611015575b505050610df1565b809192939495503b156105ef57602483926040519485938492632e1a7d4d60e01b845260048401525af180156110755761105f575b5061105590476115e9565b903884818061100d565b9361106e81611055939661147f565b939061104a565b6040513d87823e3d90fd5b9091506020813d6020116110ac575b8161109c6020938361147f565b810103126105ef57519038611006565b3d915061108f565b60405162461bcd60e51b815260206004820152601060248201526f1493d555115497d4d5d05417d190525360821b6044820152606490fd5b919350919360405163095ea7b360e01b81528260048201528960248201526020816044818d885af1908115611227578a91611208575b50156111cf5760446020928a604051958694859363095ea7b360e01b8552600485015260248401525af19081156111c45787916111a5575b501561116a578186913880610db7565b60405162461bcd60e51b81526020600482015260136024820152721054141493d59157d493d555115497d1905253606a1b6044820152606490fd5b6111be915060203d60201161052557610517818361147f565b3861115a565b6040513d89823e3d90fd5b60405162461bcd60e51b81526020600482015260116024820152701054141493d59157d6915493d7d1905253607a1b6044820152606490fd5b611221915060203d60201161052557610517818361147f565b38611122565b6040513d8c823e3d90fd5b9150506020813d60201161125f575b8161124e6020938361147f565b81010312610b8b5786905138610db0565b3d9150611241565b6040513d88823e3d90fd5b60405162461bcd60e51b815260206004820152600b60248201526a5753545f4d495353494e4760a81b6044820152606490fd5b506020823d6020116112d5575b816112bf6020938361147f565b810103126112d157610d769151610d6c565b8a80fd5b3d91506112b2565b6040513d8d823e3d90fd5b60405162461bcd60e51b815260206004820152600f60248201526e16915493d7d054d4d15514d7d3d555608a1b6044820152606490fd5b9095506020813d60201161134f575b8161133b6020938361147f565b8101031261134b57519438610d3b565b8980fd5b3d915061132e565b9094506020813d602011611387575b816113736020938361147f565b8101031261138357519338610cd7565b8880fd5b3d9150611366565b6040513d8b823e3d90fd5b60405162461bcd60e51b815260206004820152601060248201526f10905117d4d210549157d05353d5539560821b6044820152606490fd5b5083861115610c7d565b60405162461bcd60e51b815260206004820152600f60248201526e15d2551211149055d7d313d0d2d151608a1b6044820152606490fd5b8480fd5b50346101ac5760203660031901126101ac5760206109f061143661143b565b6114b7565b600435906001600160a01b03821682036104ad57565b9181601f840112156104ad5782359167ffffffffffffffff83116104ad57602083818601950101116104ad57565b90601f8019910116810190811067ffffffffffffffff8211176114a157604052565b634e487b7160e01b600052604160045260246000fd5b6001600160a01b031660009081526004602052604090205480156115695760405163266d6a8360e11b815260048101919091526020816024817f00000000000000000000000000000000000000000000000000000000000000006001600160a01b03165afa90811561155d5760009161152e575090565b90506020813d602011611555575b816115496020938361147f565b810103126104ad575190565b3d915061153c565b6040513d6000823e3d90fd5b50600090565b1561157657565b60405162461bcd60e51b815260206004820152600a6024820152695245454e5452414e435960b01b6044820152606490fd5b156115af57565b60405162461bcd60e51b81526020600482015260126024820152711493d555115497d393d517d0531313d5d15160721b6044820152606490fd5b919082039182116115f657565b634e487b7160e01b600052601160045260246000fd5b908160209103126104ad575180151581036104ad5790565b3d1561165f573d9067ffffffffffffffff82116114a15760405191611653601f8201601f19166020018461147f565b82523d6000602084013e565b606090565b818102929181159184041417156115f657565b1561167e57565b60405162461bcd60e51b81526020600482015260096024820152682727aa2fa7aba722a960b91b6044820152606490fd5b6116b8816114b7565b6001600160a01b03909116600090815260056020526040902054808210156116f557906116e4916115e9565b600160ff1b81146115f65760000390565b6116fe916115e9565b90565b919082018092116115f657565b60025460ff8160f01c16908115611723575090565b67ffffffffffffffff915060b01c164210159056fea26469706673582212203228be4907bc5e68df9fee1a79e1c050d73f50101771cc626771c6f9e789f8d264736f6c634300081c0033",
    "linkReferences": {}
  },
  "methodIdentifiers": {
    "MELLOW_VAULT()": "89a64344",
    "WETH()": "ad5c4648",
    "WSTETH()": "d9fb643a",
    "canWithdraw()": "b51459fe",
    "currentAssetsOf(address)": "099476d0",
    "depositETHViaRouter(address,bytes,uint256)": "604e85b9",
    "depositWstETH(uint256)": "866c0101",
    "feeBps()": "24a9d853",
    "feeRecipient()": "46904840",
    "isRouterAllowed(address)": "61771e49",
    "owner()": "8da5cb5b",
    "profitOf(address)": "54198ce9",
    "setParams(address,uint16,uint64,bool)": "290f2539",
    "setRouterAllowed(address,bool)": "6cc88edb",
    "transferOwnership(address)": "f2fde38b",
    "unlockTime()": "251c1aa3",
    "userPrincipal(address)": "62dab626",
    "userShares(address)": "de69b3aa",
    "withdrawSplitToETH(uint256,address,bytes,uint256)": "1fa0ee44",
    "withdrawalsEnabled()": "d0dbcd24"
  },
  "id": 0
}